{
  "contractName": "OrderManager",
  "abi": [
    {
      "inputs": [],
      "stateMutability": "nonpayable",
      "type": "constructor"
    },
    {
      "anonymous": false,
      "inputs": [
        {
          "indexed": true,
          "internalType": "uint256",
          "name": "orderId",
          "type": "uint256"
        },
        {
          "indexed": true,
          "internalType": "address",
          "name": "userAddress",
          "type": "address"
        },
        {
          "indexed": true,
          "internalType": "address",
          "name": "receiverAddress",
          "type": "address"
        },
        {
          "indexed": false,
          "internalType": "uint256",
          "name": "totalAmount",
          "type": "uint256"
        },
        {
          "indexed": false,
          "internalType": "uint256",
          "name": "timestamp",
          "type": "uint256"
        }
      ],
      "name": "OrderPlaced",
      "type": "event"
    },
    {
      "inputs": [],
      "name": "orderCount",
      "outputs": [
        {
          "internalType": "uint256",
          "name": "",
          "type": "uint256"
        }
      ],
      "stateMutability": "view",
      "type": "function",
      "constant": true
    },
    {
      "inputs": [
        {
          "internalType": "uint256",
          "name": "",
          "type": "uint256"
        }
      ],
      "name": "orders",
      "outputs": [
        {
          "internalType": "address",
          "name": "userAddress",
          "type": "address"
        },
        {
          "internalType": "address",
          "name": "receiverAddress",
          "type": "address"
        },
        {
          "internalType": "uint256",
          "name": "totalAmount",
          "type": "uint256"
        },
        {
          "internalType": "uint256",
          "name": "timestamp",
          "type": "uint256"
        }
      ],
      "stateMutability": "view",
      "type": "function",
      "constant": true
    },
    {
      "inputs": [],
      "name": "owner",
      "outputs": [
        {
          "internalType": "address",
          "name": "",
          "type": "address"
        }
      ],
      "stateMutability": "view",
      "type": "function",
      "constant": true
    },
    {
      "inputs": [
        {
          "internalType": "address",
          "name": "_receiverAddress",
          "type": "address"
        },
        {
          "components": [
            {
              "internalType": "string",
              "name": "name",
              "type": "string"
            },
            {
              "internalType": "uint256",
              "name": "price",
              "type": "uint256"
            },
            {
              "internalType": "uint256",
              "name": "quantity",
              "type": "uint256"
            }
          ],
          "internalType": "struct OrderManager.Product[]",
          "name": "_products",
          "type": "tuple[]"
        }
      ],
      "name": "placeOrder",
      "outputs": [],
      "stateMutability": "payable",
      "type": "function",
      "payable": true
    },
    {
      "inputs": [
        {
          "internalType": "uint256",
          "name": "orderId",
          "type": "uint256"
        }
      ],
      "name": "getOrderDetails",
      "outputs": [
        {
          "internalType": "address",
          "name": "userAddress",
          "type": "address"
        },
        {
          "internalType": "address",
          "name": "receiverAddress",
          "type": "address"
        },
        {
          "components": [
            {
              "internalType": "string",
              "name": "name",
              "type": "string"
            },
            {
              "internalType": "uint256",
              "name": "price",
              "type": "uint256"
            },
            {
              "internalType": "uint256",
              "name": "quantity",
              "type": "uint256"
            }
          ],
          "internalType": "struct OrderManager.Product[]",
          "name": "products",
          "type": "tuple[]"
        },
        {
          "internalType": "uint256",
          "name": "totalAmount",
          "type": "uint256"
        },
        {
          "internalType": "uint256",
          "name": "timestamp",
          "type": "uint256"
        }
      ],
      "stateMutability": "view",
      "type": "function",
      "constant": true
    },
    {
      "inputs": [],
      "name": "withdraw",
      "outputs": [],
      "stateMutability": "nonpayable",
      "type": "function"
    }
  ],
  "bytecode": "0x608060405234801561001057600080fd5b50336000806101000a81548173ffffffffffffffffffffffffffffffffffffffff021916908373ffffffffffffffffffffffffffffffffffffffff16021790555061131f806100606000396000f3fe6080604052600436106100555760003560e01c80632453ffa81461005a5780633ccfd60b146100855780638da5cb5b1461009c578063a85c38ef146100c7578063b8a69d9314610107578063ec7dd7bb14610123575b600080fd5b34801561006657600080fd5b5061006f610164565b60405161007c9190610f32565b60405180910390f35b34801561009157600080fd5b5061009a61016a565b005b3480156100a857600080fd5b506100b16102c8565b6040516100be9190610df8565b60405180910390f35b3480156100d357600080fd5b506100ee60048036038101906100e99190610b3b565b6102ec565b6040516100fe9493929190610e6d565b60405180910390f35b610121600480360381019061011c9190610ae7565b61035c565b005b34801561012f57600080fd5b5061014a60048036038101906101459190610b3b565b610729565b60405161015b959493929190610e13565b60405180910390f35b60025481565b60008054906101000a900473ffffffffffffffffffffffffffffffffffffffff1673ffffffffffffffffffffffffffffffffffffffff163373ffffffffffffffffffffffffffffffffffffffff16146101f8576040517f08c379a00000000000000000000000000000000000000000000000000000000081526004016101ef90610eb2565b60405180910390fd5b60008060009054906101000a900473ffffffffffffffffffffffffffffffffffffffff1673ffffffffffffffffffffffffffffffffffffffff164760405161023f90610de3565b60006040518083038185875af1925050503d806000811461027c576040519150601f19603f3d011682016040523d82523d6000602084013e610281565b606091505b50509050806102c5576040517f08c379a00000000000000000000000000000000000000000000000000000000081526004016102bc90610ef2565b60405180910390fd5b50565b60008054906101000a900473ffffffffffffffffffffffffffffffffffffffff1681565b60016020528060005260406000206000915090508060000160009054906101000a900473ffffffffffffffffffffffffffffffffffffffff16908060010160009054906101000a900473ffffffffffffffffffffffffffffffffffffffff16908060030154908060040154905084565b6000805b825181101561041d578281815181106103a2577f4e487b7100000000000000000000000000000000000000000000000000000000600052603260045260246000fd5b6020026020010151604001518382815181106103e7577f4e487b7100000000000000000000000000000000000000000000000000000000600052603260045260246000fd5b6020026020010151602001516103fd91906110ca565b826104089190611074565b91508080610415906111d4565b915050610360565b5080341015610461576040517f08c379a000000000000000000000000000000000000000000000000000000000815260040161045890610f12565b60405180910390fd5b60008060009054906101000a900473ffffffffffffffffffffffffffffffffffffffff1673ffffffffffffffffffffffffffffffffffffffff16346040516104a890610de3565b60006040518083038185875af1925050503d80600081146104e5576040519150601f19603f3d011682016040523d82523d6000602084013e6104ea565b606091505b505090508061052e576040517f08c379a000000000000000000000000000000000000000000000000000000000815260040161052590610ed2565b60405180910390fd5b60026000815480929190610541906111d4565b919050555060006001600060025481526020019081526020016000209050338160000160006101000a81548173ffffffffffffffffffffffffffffffffffffffff021916908373ffffffffffffffffffffffffffffffffffffffff160217905550848160010160006101000a81548173ffffffffffffffffffffffffffffffffffffffff021916908373ffffffffffffffffffffffffffffffffffffffff16021790555082816003018190555042816004018190555060005b84518110156106b75781600201858281518110610640577f4e487b7100000000000000000000000000000000000000000000000000000000600052603260045260246000fd5b60200260200101519080600181540180825580915050600190039060005260206000209060030201600090919091909150600082015181600001908051906020019061068d9291906108b3565b506020820151816001015560408201518160020155505080806106af906111d4565b9150506105fa565b508473ffffffffffffffffffffffffffffffffffffffff163373ffffffffffffffffffffffffffffffffffffffff166002547f842740ca241c8cea19809d2824591efdd38a7e8e546b25122b975df6598e52c1864260405161071a929190610f4d565b60405180910390a45050505050565b600080606060008060006001600088815260200190815260200160002090508060000160009054906101000a900473ffffffffffffffffffffffffffffffffffffffff168160010160009054906101000a900473ffffffffffffffffffffffffffffffffffffffff16826002018360030154846004015482805480602002602001604051908101604052809291908181526020016000905b8282101561089957838290600052602060002090600302016040518060600160405290816000820180546107f4906111a2565b80601f0160208091040260200160405190810160405280929190818152602001828054610820906111a2565b801561086d5780601f106108425761010080835404028352916020019161086d565b820191906000526020600020905b81548152906001019060200180831161085057829003601f168201915b5050505050815260200160018201548152602001600282015481525050815260200190600101906107c1565b505050509250955095509550955095505091939590929450565b8280546108bf906111a2565b90600052602060002090601f0160209004810192826108e15760008555610928565b82601f106108fa57805160ff1916838001178555610928565b82800160010185558215610928579182015b8281111561092757825182559160200191906001019061090c565b5b5090506109359190610939565b5090565b5b8082111561095257600081600090555060010161093a565b5090565b600061096961096484610fa7565b610f76565b9050808382526020820190508260005b858110156109a9578135850161098f8882610a5a565b845260208401935060208301925050600181019050610979565b5050509392505050565b60006109c66109c184610fd3565b610f76565b9050828152602081018484840111156109de57600080fd5b6109e9848285611160565b509392505050565b600081359050610a00816112bb565b92915050565b600082601f830112610a1757600080fd5b8135610a27848260208601610956565b91505092915050565b600082601f830112610a4157600080fd5b8135610a518482602086016109b3565b91505092915050565b600060608284031215610a6c57600080fd5b610a766060610f76565b9050600082013567ffffffffffffffff811115610a9257600080fd5b610a9e84828501610a30565b6000830152506020610ab284828501610ad2565b6020830152506040610ac684828501610ad2565b60408301525092915050565b600081359050610ae1816112d2565b92915050565b60008060408385031215610afa57600080fd5b6000610b08858286016109f1565b925050602083013567ffffffffffffffff811115610b2557600080fd5b610b3185828601610a06565b9150509250929050565b600060208284031215610b4d57600080fd5b6000610b5b84828501610ad2565b91505092915050565b6000610b708383610d75565b905092915050565b610b8181611124565b82525050565b6000610b9282611013565b610b9c8185611036565b935083602082028501610bae85611003565b8060005b85811015610bea5784840389528151610bcb8582610b64565b9450610bd683611029565b925060208a01995050600181019050610bb2565b50829750879550505050505092915050565b6000610c078261101e565b610c118185611052565b9350610c2181856020860161116f565b610c2a816112aa565b840191505092915050565b6000610c42602683611063565b91507f4f6e6c7920746865206f776e65722063616e20706572666f726d20746869732060008301527f616374696f6e00000000000000000000000000000000000000000000000000006020830152604082019050919050565b6000610ca8601d83611063565b91507f4661696c656420746f2073656e6420457468657220746f206f776e65720000006000830152602082019050919050565b6000610ce8601883611063565b91507f4661696c656420746f20776974686472617720457468657200000000000000006000830152602082019050919050565b6000610d28600083611047565b9150600082019050919050565b6000610d42601783611063565b91507f496e73756666696369656e742066756e64732073656e740000000000000000006000830152602082019050919050565b60006060830160008301518482036000860152610d928282610bfc565b9150506020830151610da76020860182610dc5565b506040830151610dba6040860182610dc5565b508091505092915050565b610dce81611156565b82525050565b610ddd81611156565b82525050565b6000610dee82610d1b565b9150819050919050565b6000602082019050610e0d6000830184610b78565b92915050565b600060a082019050610e286000830188610b78565b610e356020830187610b78565b8181036040830152610e478186610b87565b9050610e566060830185610dd4565b610e636080830184610dd4565b9695505050505050565b6000608082019050610e826000830187610b78565b610e8f6020830186610b78565b610e9c6040830185610dd4565b610ea96060830184610dd4565b95945050505050565b60006020820190508181036000830152610ecb81610c35565b9050919050565b60006020820190508181036000830152610eeb81610c9b565b9050919050565b60006020820190508181036000830152610f0b81610cdb565b9050919050565b60006020820190508181036000830152610f2b81610d35565b9050919050565b6000602082019050610f476000830184610dd4565b92915050565b6000604082019050610f626000830185610dd4565b610f6f6020830184610dd4565b9392505050565b6000604051905081810181811067ffffffffffffffff82111715610f9d57610f9c61127b565b5b8060405250919050565b600067ffffffffffffffff821115610fc257610fc161127b565b5b602082029050602081019050919050565b600067ffffffffffffffff821115610fee57610fed61127b565b5b601f19601f8301169050602081019050919050565b6000819050602082019050919050565b600081519050919050565b600081519050919050565b6000602082019050919050565b600082825260208201905092915050565b600081905092915050565b600082825260208201905092915050565b600082825260208201905092915050565b600061107f82611156565b915061108a83611156565b9250827fffffffffffffffffffffffffffffffffffffffffffffffffffffffffffffffff038211156110bf576110be61121d565b5b828201905092915050565b60006110d582611156565b91506110e083611156565b9250817fffffffffffffffffffffffffffffffffffffffffffffffffffffffffffffffff04831182151516156111195761111861121d565b5b828202905092915050565b600061112f82611136565b9050919050565b600073ffffffffffffffffffffffffffffffffffffffff82169050919050565b6000819050919050565b82818337600083830152505050565b60005b8381101561118d578082015181840152602081019050611172565b8381111561119c576000848401525b50505050565b600060028204905060018216806111ba57607f821691505b602082108114156111ce576111cd61124c565b5b50919050565b60006111df82611156565b91507fffffffffffffffffffffffffffffffffffffffffffffffffffffffffffffffff8214156112125761121161121d565b5b600182019050919050565b7f4e487b7100000000000000000000000000000000000000000000000000000000600052601160045260246000fd5b7f4e487b7100000000000000000000000000000000000000000000000000000000600052602260045260246000fd5b7f4e487b7100000000000000000000000000000000000000000000000000000000600052604160045260246000fd5b6000601f19601f8301169050919050565b6112c481611124565b81146112cf57600080fd5b50565b6112db81611156565b81146112e657600080fd5b5056fea26469706673582212200f45dcedf0e0b7a341db3e12231606555ef08eefd1617929e9ea98a1d0c5a9fb64736f6c63430008000033",
  "immutableReferences": {},
  "source": "// SPDX-License-Identifier: MIT\r\npragma solidity ^0.8.0;\r\n\r\ncontract OrderManager {\r\n    address public owner;\r\n\r\n    struct Product {\r\n        string name;\r\n        uint256 price;\r\n        uint256 quantity;\r\n    }\r\n\r\n    struct Order {\r\n        address userAddress;\r\n        address receiverAddress;\r\n        Product[] products;\r\n        uint256 totalAmount;\r\n        uint256 timestamp;\r\n    }\r\n\r\n    mapping(uint256 => Order) public orders;\r\n    uint256 public orderCount;\r\n\r\n    event OrderPlaced(\r\n        uint256 indexed orderId,\r\n        address indexed userAddress,\r\n        address indexed receiverAddress,\r\n        uint256 totalAmount,\r\n        uint256 timestamp\r\n    );\r\n\r\n    // Set the owner as the contract deployer\r\n    constructor() {\r\n        owner = msg.sender;\r\n    }\r\n\r\n    modifier onlyOwner() {\r\n        require(msg.sender == owner, \"Only the owner can perform this action\");\r\n        _;\r\n    }\r\n\r\n    function placeOrder(\r\n        address _receiverAddress,\r\n        Product[] memory _products\r\n    ) public payable {\r\n        uint256 totalCost = 0;\r\n\r\n        // Calculate total cost\r\n        for (uint256 i = 0; i < _products.length; i++) {\r\n            totalCost += _products[i].price * _products[i].quantity;\r\n        }\r\n\r\n        require(msg.value >= totalCost, \"Insufficient funds sent\");\r\n\r\n        // Transfer the funds to the owner\r\n        (bool sent, ) = owner.call{value: msg.value}(\"\");\r\n        require(sent, \"Failed to send Ether to owner\");\r\n\r\n        // Store the order\r\n        orderCount++;\r\n        Order storage newOrder = orders[orderCount];\r\n        newOrder.userAddress = msg.sender;\r\n        newOrder.receiverAddress = _receiverAddress;\r\n        newOrder.totalAmount = totalCost;\r\n        newOrder.timestamp = block.timestamp;\r\n\r\n        // Copy products to the order\r\n        for (uint256 i = 0; i < _products.length; i++) {\r\n            newOrder.products.push(_products[i]);\r\n        }\r\n\r\n        emit OrderPlaced(orderCount, msg.sender, _receiverAddress, totalCost, block.timestamp);\r\n    }\r\n\r\n    function getOrderDetails(uint256 orderId) public view returns (\r\n        address userAddress,\r\n        address receiverAddress,\r\n        Product[] memory products,\r\n        uint256 totalAmount,\r\n        uint256 timestamp\r\n    ) {\r\n        Order storage order = orders[orderId];\r\n        return (\r\n            order.userAddress,\r\n            order.receiverAddress,\r\n            order.products,\r\n            order.totalAmount,\r\n            order.timestamp\r\n        );\r\n    }\r\n\r\n    // Allow the owner to withdraw any funds sent to the contract (if any)\r\n    function withdraw() public onlyOwner {\r\n        (bool sent, ) = owner.call{value: address(this).balance}(\"\");\r\n        require(sent, \"Failed to withdraw Ether\");\r\n    }\r\n}\r\n",
  "sourcePath": "D:\\SecureShop\\Blockchain\\contracts\\OrderManager.sol",
  "compiler": {
    "name": "solc",
    "version": "0.8.0+commit.c7dfd78e.Emscripten.clang"
  },
  "schemaVersion": "3.4.16",
  "updatedAt": "2024-09-29T23:10:49.058Z",
  "networkType": "ethereum",
  "devdoc": {
    "kind": "dev",
    "methods": {},
    "version": 1
  },
  "userdoc": {
    "kind": "user",
    "methods": {},
    "version": 1
  }
}