{
  "contractName": "OrderManager",
  "abi": [
    {
      "anonymous": false,
      "inputs": [
        {
          "indexed": true,
          "internalType": "uint256",
          "name": "orderId",
          "type": "uint256"
        },
        {
          "indexed": true,
          "internalType": "address",
          "name": "userAddress",
          "type": "address"
        },
        {
          "indexed": true,
          "internalType": "address",
          "name": "receiverAddress",
          "type": "address"
        },
        {
          "indexed": false,
          "internalType": "uint256",
          "name": "totalAmount",
          "type": "uint256"
        },
        {
          "indexed": false,
          "internalType": "uint256",
          "name": "timestamp",
          "type": "uint256"
        }
      ],
      "name": "OrderPlaced",
      "type": "event"
    },
    {
      "inputs": [],
      "name": "orderCount",
      "outputs": [
        {
          "internalType": "uint256",
          "name": "",
          "type": "uint256"
        }
      ],
      "stateMutability": "view",
      "type": "function",
      "constant": true
    },
    {
      "inputs": [
        {
          "internalType": "uint256",
          "name": "",
          "type": "uint256"
        }
      ],
      "name": "orders",
      "outputs": [
        {
          "internalType": "address",
          "name": "userAddress",
          "type": "address"
        },
        {
          "internalType": "address",
          "name": "receiverAddress",
          "type": "address"
        },
        {
          "internalType": "uint256",
          "name": "totalAmount",
          "type": "uint256"
        },
        {
          "internalType": "uint256",
          "name": "timestamp",
          "type": "uint256"
        }
      ],
      "stateMutability": "view",
      "type": "function",
      "constant": true
    },
    {
      "inputs": [
        {
          "internalType": "address",
          "name": "_receiverAddress",
          "type": "address"
        },
        {
          "components": [
            {
              "internalType": "string",
              "name": "name",
              "type": "string"
            },
            {
              "internalType": "uint256",
              "name": "price",
              "type": "uint256"
            },
            {
              "internalType": "uint256",
              "name": "quantity",
              "type": "uint256"
            }
          ],
          "internalType": "struct OrderManager.Product[]",
          "name": "_products",
          "type": "tuple[]"
        }
      ],
      "name": "placeOrder",
      "outputs": [],
      "stateMutability": "payable",
      "type": "function",
      "payable": true
    },
    {
      "inputs": [
        {
          "internalType": "uint256",
          "name": "orderId",
          "type": "uint256"
        }
      ],
      "name": "getOrderDetails",
      "outputs": [
        {
          "internalType": "address",
          "name": "userAddress",
          "type": "address"
        },
        {
          "internalType": "address",
          "name": "receiverAddress",
          "type": "address"
        },
        {
          "components": [
            {
              "internalType": "string",
              "name": "name",
              "type": "string"
            },
            {
              "internalType": "uint256",
              "name": "price",
              "type": "uint256"
            },
            {
              "internalType": "uint256",
              "name": "quantity",
              "type": "uint256"
            }
          ],
          "internalType": "struct OrderManager.Product[]",
          "name": "products",
          "type": "tuple[]"
        },
        {
          "internalType": "uint256",
          "name": "totalAmount",
          "type": "uint256"
        },
        {
          "internalType": "uint256",
          "name": "timestamp",
          "type": "uint256"
        }
      ],
      "stateMutability": "view",
      "type": "function",
      "constant": true
    }
  ],
  "bytecode": "0x608060405234801561001057600080fd5b50610eda806100206000396000f3fe60806040526004361061003f5760003560e01c80632453ffa814610044578063a85c38ef1461006f578063b8a69d93146100af578063ec7dd7bb146100cb575b600080fd5b34801561005057600080fd5b5061005961010c565b6040516100669190610af8565b60405180910390f35b34801561007b57600080fd5b5061009660048036038101906100919190610891565b610112565b6040516100a69493929190610a93565b60405180910390f35b6100c960048036038101906100c4919061083d565b610182565b005b3480156100d757600080fd5b506100f260048036038101906100ed9190610891565b610480565b604051610103959493929190610a39565b60405180910390f35b60015481565b60006020528060005260406000206000915090508060000160009054906101000a900473ffffffffffffffffffffffffffffffffffffffff16908060010160009054906101000a900473ffffffffffffffffffffffffffffffffffffffff16908060030154908060040154905084565b6000805b8251811015610243578281815181106101c8577f4e487b7100000000000000000000000000000000000000000000000000000000600052603260045260246000fd5b60200260200101516040015183828151811061020d577f4e487b7100000000000000000000000000000000000000000000000000000000600052603260045260246000fd5b6020026020010151602001516102239190610c85565b8261022e9190610c2f565b9150808061023b90610d8f565b915050610186565b5080341015610287576040517f08c379a000000000000000000000000000000000000000000000000000000000815260040161027e90610ad8565b60405180910390fd5b6001600081548092919061029a90610d8f565b9190505550600080600060015481526020019081526020016000209050338160000160006101000a81548173ffffffffffffffffffffffffffffffffffffffff021916908373ffffffffffffffffffffffffffffffffffffffff160217905550838160010160006101000a81548173ffffffffffffffffffffffffffffffffffffffff021916908373ffffffffffffffffffffffffffffffffffffffff16021790555081816003018190555042816004018190555060005b835181101561040f5781600201848281518110610398577f4e487b7100000000000000000000000000000000000000000000000000000000600052603260045260246000fd5b6020026020010151908060018154018082558091505060019003906000526020600020906003020160009091909190915060008201518160000190805190602001906103e5929190610609565b5060208201518160010155604082015181600201555050808061040790610d8f565b915050610352565b508373ffffffffffffffffffffffffffffffffffffffff163373ffffffffffffffffffffffffffffffffffffffff166001547f842740ca241c8cea19809d2824591efdd38a7e8e546b25122b975df6598e52c18542604051610472929190610b13565b60405180910390a450505050565b6000806060600080600080600088815260200190815260200160002090508060000160009054906101000a900473ffffffffffffffffffffffffffffffffffffffff168160010160009054906101000a900473ffffffffffffffffffffffffffffffffffffffff16826002018360030154846004015482805480602002602001604051908101604052809291908181526020016000905b828210156105ef578382906000526020600020906003020160405180606001604052908160008201805461054a90610d5d565b80601f016020809104026020016040519081016040528092919081815260200182805461057690610d5d565b80156105c35780601f10610598576101008083540402835291602001916105c3565b820191906000526020600020905b8154815290600101906020018083116105a657829003601f168201915b505050505081526020016001820154815260200160028201548152505081526020019060010190610517565b505050509250955095509550955095505091939590929450565b82805461061590610d5d565b90600052602060002090601f016020900481019282610637576000855561067e565b82601f1061065057805160ff191683800117855561067e565b8280016001018555821561067e579182015b8281111561067d578251825591602001919060010190610662565b5b50905061068b919061068f565b5090565b5b808211156106a8576000816000905550600101610690565b5090565b60006106bf6106ba84610b6d565b610b3c565b9050808382526020820190508260005b858110156106ff57813585016106e588826107b0565b8452602084019350602083019250506001810190506106cf565b5050509392505050565b600061071c61071784610b99565b610b3c565b90508281526020810184848401111561073457600080fd5b61073f848285610d1b565b509392505050565b60008135905061075681610e76565b92915050565b600082601f83011261076d57600080fd5b813561077d8482602086016106ac565b91505092915050565b600082601f83011261079757600080fd5b81356107a7848260208601610709565b91505092915050565b6000606082840312156107c257600080fd5b6107cc6060610b3c565b9050600082013567ffffffffffffffff8111156107e857600080fd5b6107f484828501610786565b600083015250602061080884828501610828565b602083015250604061081c84828501610828565b60408301525092915050565b60008135905061083781610e8d565b92915050565b6000806040838503121561085057600080fd5b600061085e85828601610747565b925050602083013567ffffffffffffffff81111561087b57600080fd5b6108878582860161075c565b9150509250929050565b6000602082840312156108a357600080fd5b60006108b184828501610828565b91505092915050565b60006108c683836109cb565b905092915050565b6108d781610cdf565b82525050565b60006108e882610bd9565b6108f28185610bfc565b93508360208202850161090485610bc9565b8060005b85811015610940578484038952815161092185826108ba565b945061092c83610bef565b925060208a01995050600181019050610908565b50829750879550505050505092915050565b600061095d82610be4565b6109678185610c0d565b9350610977818560208601610d2a565b61098081610e65565b840191505092915050565b6000610998601783610c1e565b91507f496e73756666696369656e742066756e64732073656e740000000000000000006000830152602082019050919050565b600060608301600083015184820360008601526109e88282610952565b91505060208301516109fd6020860182610a1b565b506040830151610a106040860182610a1b565b508091505092915050565b610a2481610d11565b82525050565b610a3381610d11565b82525050565b600060a082019050610a4e60008301886108ce565b610a5b60208301876108ce565b8181036040830152610a6d81866108dd565b9050610a7c6060830185610a2a565b610a896080830184610a2a565b9695505050505050565b6000608082019050610aa860008301876108ce565b610ab560208301866108ce565b610ac26040830185610a2a565b610acf6060830184610a2a565b95945050505050565b60006020820190508181036000830152610af18161098b565b9050919050565b6000602082019050610b0d6000830184610a2a565b92915050565b6000604082019050610b286000830185610a2a565b610b356020830184610a2a565b9392505050565b6000604051905081810181811067ffffffffffffffff82111715610b6357610b62610e36565b5b8060405250919050565b600067ffffffffffffffff821115610b8857610b87610e36565b5b602082029050602081019050919050565b600067ffffffffffffffff821115610bb457610bb3610e36565b5b601f19601f8301169050602081019050919050565b6000819050602082019050919050565b600081519050919050565b600081519050919050565b6000602082019050919050565b600082825260208201905092915050565b600082825260208201905092915050565b600082825260208201905092915050565b6000610c3a82610d11565b9150610c4583610d11565b9250827fffffffffffffffffffffffffffffffffffffffffffffffffffffffffffffffff03821115610c7a57610c79610dd8565b5b828201905092915050565b6000610c9082610d11565b9150610c9b83610d11565b9250817fffffffffffffffffffffffffffffffffffffffffffffffffffffffffffffffff0483118215151615610cd457610cd3610dd8565b5b828202905092915050565b6000610cea82610cf1565b9050919050565b600073ffffffffffffffffffffffffffffffffffffffff82169050919050565b6000819050919050565b82818337600083830152505050565b60005b83811015610d48578082015181840152602081019050610d2d565b83811115610d57576000848401525b50505050565b60006002820490506001821680610d7557607f821691505b60208210811415610d8957610d88610e07565b5b50919050565b6000610d9a82610d11565b91507fffffffffffffffffffffffffffffffffffffffffffffffffffffffffffffffff821415610dcd57610dcc610dd8565b5b600182019050919050565b7f4e487b7100000000000000000000000000000000000000000000000000000000600052601160045260246000fd5b7f4e487b7100000000000000000000000000000000000000000000000000000000600052602260045260246000fd5b7f4e487b7100000000000000000000000000000000000000000000000000000000600052604160045260246000fd5b6000601f19601f8301169050919050565b610e7f81610cdf565b8114610e8a57600080fd5b50565b610e9681610d11565b8114610ea157600080fd5b5056fea264697066735822122035a317a26a25c2853a8a88d6c97a5cd1bb479a94e5c973714fc3091c5249d72764736f6c63430008000033",
  "immutableReferences": {},
  "source": "// SPDX-License-Identifier: MIT\r\npragma solidity ^0.8.0;\r\n\r\ncontract OrderManager {\r\n    struct Product {\r\n        string name;\r\n        uint256 price;\r\n        uint256 quantity;\r\n    }\r\n\r\n    struct Order {\r\n        address userAddress;\r\n        address receiverAddress;\r\n        Product[] products;\r\n        uint256 totalAmount;\r\n        uint256 timestamp;\r\n    }\r\n\r\n    mapping(uint256 => Order) public orders;\r\n    uint256 public orderCount;\r\n\r\n    event OrderPlaced(\r\n        uint256 indexed orderId,\r\n        address indexed userAddress,\r\n        address indexed receiverAddress,\r\n        uint256 totalAmount,\r\n        uint256 timestamp\r\n    );\r\n\r\n    function placeOrder(\r\n        address _receiverAddress,\r\n        Product[] memory _products\r\n    ) public payable {\r\n        uint256 totalCost = 0;\r\n\r\n        // Calculate total cost\r\n        for (uint256 i = 0; i < _products.length; i++) {\r\n            totalCost += _products[i].price * _products[i].quantity;\r\n        }\r\n\r\n        require(msg.value >= totalCost, \"Insufficient funds sent\");\r\n\r\n        // Store the order\r\n        orderCount++;\r\n        Order storage newOrder = orders[orderCount];\r\n        newOrder.userAddress = msg.sender;\r\n        newOrder.receiverAddress = _receiverAddress;\r\n        newOrder.totalAmount = totalCost;\r\n        newOrder.timestamp = block.timestamp;\r\n\r\n        // Copy products to the order\r\n        for (uint256 i = 0; i < _products.length; i++) {\r\n            newOrder.products.push(_products[i]); // Push each product to the array\r\n        }\r\n\r\n        emit OrderPlaced(orderCount, msg.sender, _receiverAddress, totalCost, block.timestamp);\r\n    }\r\n\r\n    function getOrderDetails(uint256 orderId) public view returns (\r\n        address userAddress,\r\n        address receiverAddress,\r\n        Product[] memory products,\r\n        uint256 totalAmount,\r\n        uint256 timestamp\r\n    ) {\r\n        Order storage order = orders[orderId];\r\n        return (\r\n            order.userAddress,\r\n            order.receiverAddress,\r\n            order.products,\r\n            order.totalAmount,\r\n            order.timestamp\r\n        );\r\n    }\r\n}\r\n",
  "sourcePath": "D:\\SecureShop\\Blockchain\\contracts\\OrderManager.sol",
  "compiler": {
    "name": "solc",
    "version": "0.8.0+commit.c7dfd78e.Emscripten.clang"
  },
  "schemaVersion": "3.4.16",
  "updatedAt": "2024-09-21T10:32:04.405Z",
  "networkType": "ethereum",
  "devdoc": {
    "kind": "dev",
    "methods": {},
    "version": 1
  },
  "userdoc": {
    "kind": "user",
    "methods": {},
    "version": 1
  }
}